S013000052656D6F74656C695F76312E73726563CA
S11300000C9438000C944A000C9419020C944A0085
S11300100C944A000C94C4010C944A000C94F6020B
S11300200C944A000C945F020C944A000C944A000D
S11300300C944A000C944A000C944A000C944A0014
S11300400C944A000C944A000C944A000C944A0004
S11300500C944A000C944A000C944A000C944A00F4
S11300600C944A000C944A000C944A000C944A00E4
S113007011241FBECFEFD4E0DEBFCDBF22E0A0E04D
S1130080B1E001C01D92A733B207E1F70E949B01C2
S11300900C9437030C940000CF93DF931F92CDB7D9
S11300A0DEB786E98983898181508983882331F089
S11300B000008981815089838111FACF0F90DF91EB
S11300C0CF9108950F931F93CF93DF93009749F037
S11300D08C01C0E0D0E00E944C002196C017D107EB
S11300E0D1F7DF91CF911F910F9108959F92AF9215
S11300F0BF92CF92DF92EF92FF920F931F93CF9311
S1130100DF93EA01B82FA72F962F88279FB6F8947C
S1130110E199FECFB82EC92E23E0FC0120935700AD
S1130120E89507B600FCFDCFE199FECF23E0FC0182
S1130130E058FF4F20935700E89507B600FCFDCF29
S11301407E01F3948C01DD24D3940F2EF5E0AF2EC1
S1130150F02D1BC08D919D910C01D0925700E89514
S113016011243296A217B307A9F7F801A0925700F9
S1130170E89507B600FCFDCF84E690E00E9462009B
S1130180005E1F4FCE15DF0531F0DE01A0969E0103
S1130190EB2DFC2DDFCF9FBEDF91CF911F910F91EF
S11301A0FF90EF90DF90CF90BF90AF909F90089515
S11301B0CF93DF932FB7E199FECFAB01BC01440F7E
S11301C0551F661F771F440F551F661F771F440F67
S11301D0551F661F771F440F551F661F771F440F57
S11301E0551F661F771FC9E0D2E0A9E0B1E049506E
S11301F05140FA01EA0FFB1F859194918D939D93D1
S1130200AC17BD07B1F72FBF89E091E0DF91CF9123
S113021008957A9B1CC03C9B1CC07B9B1CC0599BB3
S11302201CC0399B1CC07F9B1CC0799B1CC05B9B62
S11302301CC0589906C0809107019091080101974C
S1130240B1F03D9B16C05A9B16C080E0089581E032
S1130250089582E0089583E0089584E0089585E098
S1130260089586E0089587E0089588E0089589E078
S113027008958AE008958BE00895CF93DF93C4E650
S1130280D0E00E940901811102C02197D1F7DF91CA
S1130290CF910895489A84E690E00E9462004898BD
S11302A084E690E00E946200489A84E690E00E940E
S11302B06200489884E690E00E9462000895CF931B
S11302C09FEF980F9B30B0F4C82F0E94D3010E9477
S11302D0F201892BE1F30E94FB01AC016C2F70E069
S11302E06A5F7F4F072E000C880B990B0E947600E3
S11302F00E944A01CF910895682F70E06A5F7F4F92
S1130300660F771F660F771F660F771F072E000C87
S1130310880B990B0E94D8000E9491020E94C5028A
S11303200E94ED02892BE1F30E94AB0284E690E087
S11303300E9462000895789480B7806480BF80B77B
S1130340816280BF81E090E090930801809307016F
S113035080E480BB1CB891E098B99FE09EB99FE906
S113036092BB9EEF9AB981BB88EE93E00E94620033
S11303700E943D010E945F010E943D018823E1F338
S113038090E00E947C01F8CF1F920F920FB60F925B
S113039011248F9380B7806480BF8F910F900FBE1C
S11303A00F901F90189580B78F7B80BF1092080123
S11303B010920701109203011092020110920101A0
S11303C01092000189B7806889BF8AB780688ABFA4
S11303D08BB788608BBF87B5806287BD8CB7886018
S11303E08CBF089581E090E020910001213011F04C
S11303F080E090E00895E1E7F0E08081887F8083E9
S11304008AB78F778ABF87B58F7D87BD8CB7877F83
S11304108CBF10926F0010926E0080B7806480BF12
S113042081E090E0909308018093070189E091E0D6
S113043008951F920F920FB60F9211248F939F93DA
S1130440AF93BF93EF93FF9380910301811111C088
S113045081E0809303011092020110920101109235
S11304606F0010926E00E1E7F0E08081816080838C
S11304701BC0AEE6B0E08D919C911197E091010113
S1130480F0910201EE0FFF1FE75FFE4F918380831F
S113049011961C921E928091010190910201019685
S11304A09093020180930101FF91EF91BF91AF916D
S11304B09F918F910F900FBE0F901F9018951F92D0
S11304C00F920FB60F9211248F939F93EF93FF9384
S11304D0E1E7F0E08081887F8083E0910101F09181
S11304E00201E639F1055CF4EE0FFF1FE75FFE4FF2
S11304F085E392E011921192E817F907D9F7109267
S11305000301109202011092010181E08093000125
S1130510FF91EF919F918F910F900FBE0F901F90BD
S113052018951092040190933602809335028CE062
S113053088BBD99A89B7806489BF8AB780648ABF27
S1130540E1E7F0E0808188608083E2E7F0E0808189
S11305508C7F80830895E1E7F0E08081887F808349
S1130560DE98D09881E0809304018AB78F7B8ABF9C
S11305708081877F8083E2E7F0E080818C7F8083C5
S113058010926F0010926E0008951092060110925E
S1130590050110926F0010926E00E0910501F09138
S11305A00601EE0FFF1F8091350290913602E80F8D
S11305B0F91F8081918190936D0080936C009BB3AF
S11305C080E489278BBB9AB381E089278ABBE1E762
S11305D0F0E0808181608083089581E090E0209143
S11305E00401213011F080E090E008951F920F92F1
S11305F00FB60F9211248F939F93EF93FF939BB3A6
S113060080E489278BBB9AB381E089278ABB8091D8
S113061005019091060101969093060180930501CE
S11306208038910561F0880F991FE0913502F091AF
S11306303602E80FF91F80819181009759F4E1E7B0
S1130640F0E08081887F8083DE98D09881E0809379
S1130650040104C090936D0080936C00FF91EF91AE
S11306609F918F910F900FBE0F901F901895F89443
S1050670FFCFB6
S9030000FC
